:030000000208876C
:0C088700787FE4F6D8FD75810A020800B5
:0C089300456D626574726F6E697820001C
:10085F008B088A09890AAB08AA09A90A120830600D
:10086F0016050AE50A7002050914F9120830F59900
:08087F003099FDC29980DF22CF
:10080000759850758920758BFD758DFDD28E7BFF97
:100810007A08799312085F900000AF82AE83E4FCFF
:10082000FD7BB87A88F9F8D312084940E1A380EA41
:10083000BB010689828A83E0225002E722BBFE02C6
:09084000E32289828A83E49322F9
:10084900EB9FF5F0EA9E42F0E99D42F0EC6480C826
:0608590064809845F022C6
:00000001FF
